:100000000C9444010C946C010C946C010C946C01E4
:100010000C946C010C946C010C946C010C946C01AC
:100020000C946C010C946C010C94FD090C94F40379
:100030000C946C010C946C010C946C010C946C018C
:100040000C946C010C946C010C946C010C946C017C
:100050000C946C010C946C010C946C010C940708CA
:100060000C946C010C946C010C946C010C946C015C
:100070000C946C010C946C010C946C010C946C014C
:100080000C946C010C946C010C946C010C946C013C
:100090000C946C010C946C010C946C010C946C012C
:1000A0000C946C010C946C010C946C019C069F06E2
:1000B0008E0692069606C006C006C006A306A706D0
:1000C000AB06B106B506C006BB060000000200097B
:1000D0000F0000030401000C0000000000000000FD
:1000E0000000000000000000000000000000000010
:1000F000002A2B2800000000000000000000000083
:100100000000000000000000002C9EB4A0A1A2A4EA
:1001100034A6A7A5AE362D3738271E1F202122234F
:10012000242526B333B62EB7B89F84858687888961
:100130008A8B8C8D8E8F90919293949596979899A7
:100140009A9B9C9D2F3130A3AD3504050607080905
:100150000A0B0C0D0E0F1011121314151617181987
:100160001A1B1C1DAFB1B0B500000000002500280F
:10017000002B002E00310000000000240027002A80
:10018000002D0030000404040404030405020202EC
:100190000204030202020206060606060604040220
:1001A0000202040404080201104080401020408034
:1001B00040800802040180402010020110801020BD
:1001C000404020080B000202020100090400000167
:1001D000020200000524001001052401010104248D
:1001E00002060524060001070581031000400904EA
:1001F0000100020A00000007050202400000070596
:1002000083024000000403090441726475696E6F43
:10021000204C4C430041726475696E6F204C656FD1
:100220006E6172646F001201000200000040412301
:10023000368000010102030112010002EF020140B9
:100240004123368000010102030107060504010075
:10025000080A0B0C0D0905010906A1018502050715
:1002600019E029E71500250175019508810295011E
:1002700075088103950675081500256505071900A1
:1002800029658100C0006F0A11241FBECFEFDAE09C
:10029000DEBFCDBF23E0A2E7B1E001C01D92AE30CA
:1002A000B207E1F711E0A0E0B1E0EEE6FEE102C046
:1002B00005900D92A237B107D9F711E0C4E4D1E05F
:1002C00004C02197FE010E94D40DC334D107C9F7A1
:1002D0000E94CE0A0C94350F0C9400000000000020
:1002E0004091A6015091A7012091A4013091A50150
:1002F00042175307B4F49091E8009570E1F39091A0
:10030000E80092FD19C08093F1008091A6019091C0
:10031000A70101968F739927892B19F48EEF80938B
:10032000E8008091A6019091A70101969093A70102
:100330008093A60181E0089580E00895CF92DF9236
:10034000EF92FF920F931F93CF93DF931F92CDB73E
:10035000DEB7182F062FE42E862F880F8E5F998325
:100360000E94700183E00E947001F12EC12E9981DC
:10037000D92E8C2D8F19801798F4F601E7FE02C054
:10038000849101C080810E947001182F80E00E943A
:1003900070018123FFEFCF1ADF0A8111EACF01C07C
:1003A00081E00F90DF91CF911F910F91FF90EF901F
:1003B000DF90CF900895DF92EF92FF920F931F93FB
:1003C000CF93DF93D82E8A017B01E40EF51EEB015B
:1003D000CE15DF0571F0D7FE03C0FE01849101C088
:1003E00088810E94700121968111F2CF8FEF9FEFDB
:1003F00001C0C801DF91CF911F910F91FF90EF9045
:10040000DF900895615030F02091F100FC012083CD
:100410000196F8CF289884E68093AC010895CF9296
:10042000DF92EF92FF920F931F93CF93DF936C01B4
:100430007A018B01C0E0D0E0CE15DF0589F0D8014C
:100440006D918D01D601ED91FC910190F081E02D2F
:10045000C6010995892B11F47E0102C02196ECCFCB
:10046000C701DF91CF911F910F91FF90EF90DF9027
:10047000CF90089580919B0181110DC082E08093FF
:10048000970184E08093980110929A01109299014B
:1004900081E080939B0187E991E008950F931F937A
:1004A000CF93DF931F92CDB7DEB782E0898342E41A
:1004B00050E063EC71E080E80E94DB010E943A02A8
:1004C000DC0112960D911C9113970115110569F02D
:1004D000D801ED91FC910280F381E02DBE016F5FA8
:1004E0007F4FC801099597FF07C089810F90DF9161
:1004F000CF911F910F910895F80100851185E5CFE7
:10050000CF93DF931F92CDB7DEB76983DC01ED9106
:10051000FC910280F381E02D41E050E0BE016F5F6D
:100520007F4F09950F90DF91CF91089583E08093DD
:10053000E9008091F200882319F08AE38093E800B3
:100540000895FC018485958597FD0BC09FB7F894AD
:1005500082E08093E9008091F2009FBF90E00196D5
:1005600008959FB7F89482E08093E9008091F200AB
:100570009FBF90E008953FB7F894809193019091C8
:100580009401A0919501B091960126B5A89B05C054
:100590002F3F19F00196A11DB11D3FBFBA2FA92F02
:1005A000982F8827820F911DA11DB11DBC01CD017F
:1005B00042E0660F771F881F991F4A95D1F708956B
:1005C000DC01FB0112968C91129790E02481358119
:1005D00082179307D1F491818081813A31F481E0CF
:1005E000913091F0933089F411C0813271F49B30D5
:1005F00021F482811F968C9305C09A3031F4828158
:1006000050968C9381E00895089580E00895DC0170
:10061000FB0188E4808389E4818384E482831D96DE
:100620009C911D979F709F5B93831D968D919C91CC
:100630001E9724E0969587952A95E1F78F708F5B3A
:10064000848385E00895EF92FF920F931F93CF93D9
:10065000DF93FB012081213851F52381223239F5C6
:10066000DC0112962C9130E04481558142175307EA
:10067000F1F4EC010B851C85E12CF12C0115110521
:1006800091F0F801448155816281738180E80E9474
:10069000DB018F3FFFEF9F0769F0E80EF91ED801DD
:1006A0000D911C91EBCF81E08F87C70105C080E0E1
:1006B00090E002C08FEF9FEFDF91CF911F910F91DC
:1006C000FF90EF900895CF93DF93CDB7DEB7699792
:1006D0000FB6F894DEBF0FBECDBFFC01DB018C91DD
:1006E0008F5F8C93BE016F5F7F4F89E1DB011D92AD
:1006F0008A95E9F729E0298384E08A8391E09D8344
:1007000083E08E832A8721E22B879C879D879F87A2
:1007100022E2288B27E02B8B25E02C8B8E8B20E48C
:1007200030E0388F2F8B998F82818B8395858685DA
:10073000998B8A8B838180688D8B49E150E080E0C2
:100740000E94DB0169960FB6F894DEBF0FBECDBFE5
:10075000DF91CF910895FC0182818F5BFB01808343
:1007600081E00895CF93DF931F92CDB7DEB7FC01F0
:100770008485958597FD05C02FEF3FEF358724874A
:100780000BC0CE0101960E94D309019719F489810B
:1007900090E002C08FEF9FEF0F90DF91CF9108950F
:1007A0000F931F93CF93DF931F92CDB7DEB78C01CA
:1007B000FC018485958597FF0EC0CE0101960E94AD
:1007C000D309019719F4298130E002C02FEF3FEFE0
:1007D000F80135872487F801848595850F90DF918E
:1007E000CF911F910F9108951F920F920FB60F9204
:1007F0001124CF92DF92EF92FF920F931F932F93CA
:100800003F934F935F936F937F938F939F93AF9398
:10081000BF93EF93FF93CF93DF93CDB7DEB76C9782
:10082000DEBFCDBF1092E9008091E80083FFFAC1DE
:1008300068E0CE0145960E94020282EF8093E800B4
:100840008D8987FF05C09091E80090FFFCCF03C021
:100850009EEF9093E800982F907609F0C6C09E898D
:100860002F89188D91110CC0803829F48091AB012B
:100870008093F10002C01092F1001092F10047C184
:10088000422F50E0512B913051F4811140C1413041
:10089000510509F03CC18091AB018D7F0BC09330B5
:1008A00061F4811134C14130510509F030C18091AA
:1008B000AB0182608093AB012AC1953041F48091F5
:1008C000E80080FFFCCF20682093E30020C1963031
:1008D00009F05FC0EB8CFC8C1092E9001092A7012C
:1008E0001092A601123091F51092A5011092A40168
:1008F0000E944E0299E0BE016F5F7F4FDB01E92F3E
:100900001D92EA95E9F799831A8391E09E8390EA14
:1009100098879AEF99872091A6013091A701275FC8
:100920003F4F3C832B838D831092E9001092A701E7
:100930001092A601F092A501E092A40149E050E0D6
:1009400080E00E94DB010E944E02E1C0F092A5010E
:10095000E092A4010E943A02DC011296ED90FC9014
:100960001397E114F10409F4C0C0D701ED91FC9193
:100970000480F581E02DBE016B5E7F4FC7010995B4
:10098000009719F00CF0C3C0C6C0F701E084F184F1
:10099000E8CF973009F4BFC0983021F481E080930C
:1009A000F100B5C0993009F0B2C0837009F0B3C04E
:1009B000E3E0F1E081E021E036E39081992361F00A
:1009C0008093E9002093EB0091919093EC00309399
:1009D000ED008F5F873089F78EE78093EA001092F1
:1009E000EA008F898093AD0192C08B8D9C8D10920F
:1009F000E9001092A7011092A6019093A50180939F
:100A0000A401898D811156C08E899D89913A59F42E
:100A1000813209F080C047E050E06DE071E080E095
:100A20000E94DB0174C0913209F075C0833289F4F1
:100A3000888D90E0982F88272F89822BA0E0B0E046
:100A40008093090190930A01A0930B01B0930C01CC
:100A50005EC0803269F48091E80082FFFCCF67E0DD
:100A60008DE091E00E9402028BEF8093E80006C0C7
:100A7000823209F04CC08F89809314018091A901C2
:100A8000882319F0EEEFFAE002C0E0E0F8E0809190
:100A90000D0190910E01A0910F01B0911001803BCA
:100AA0009440A105B10509F088C08091140180FF30
:100AB000A0C083C00E943A02DC0112960D911C91E5
:100AC00013970115110539F1D801ED91FC910190B1
:100AD000F081E02DBE016B5E7F4FC8010995811149
:100AE00016C0F80100851185ECCF1130C1F013302C
:100AF00091F48F89882309F455C08230E9F440E8E5
:100B000060E185E192E00E949E01882321F08EEF52
:100B10008093E80087C081E28093EB0083C08B8DD7
:100B20009C8D089711F41093A3018091A30181116A
:100B300036C066E272E038C0813029F440E86BE0EC
:100B400089E092E0E0CF833031F70E943A02DC0185
:100B50001296ED90FC9013978E010F5F1F4F680166
:100B6000E114F10479F0D701ED91FC910680F78151
:100B7000E02DB801C7010995080F111DF701E084A8
:100B8000F184EECFD8011C92F60101900020E9F724
:100B90003197BF016C197D0940E0C601B4CF68E30D
:100BA00072E002C065E072E06115710509F4B3CF2F
:100BB000FB01449150E080E833CF0FB6F894A8953C
:100BC00080916000886180936000109260000FBE89
:100BD000A895EE3F2AE0F20739F08091FE0A909145
:100BE000FF0A9183808393CF1092FF0A1092FE0A2E
:100BF0008ECFEE3F8AE0F80731F0808191819093AB
:100C0000FF0A8093FE0A87E797E7918380839BE042
:100C100088E10FB6F894A895809360000FBE90937A
:100C2000600075CF6C960FB6F894DEBF0FBECDBFD7
:100C3000DF91CF91FF91EF91BF91AF919F918F91F4
:100C40007F916F915F914F913F912F911F910F91E4
:100C5000FF90EF90DF90CF900F900FBE0F901F90FE
:100C60001895CF93DF9390E0FC01EC55FE4F249153
:100C7000FC01EB57FE4F8491882361F190E0880FCF
:100C8000991FFC01E958FE4FC591D491FC01E75929
:100C9000FE4FA591B491611109C09FB7F894888166
:100CA000209582238883EC912E230BC0623061F45F
:100CB0009FB7F8943881822F809583238883EC91A5
:100CC0002E2B2C939FBF06C08FB7F894E8812E2B54
:100CD00028838FBFDF91CF910895000000000000AE
:100CE0000F931F93CF93DF938B01EA01E3EDF0E0C5
:100CF0004491EDEAF1E09491EEE8F1E084918823EB
:100D000009F44DC04423E1F150E0FA013197EF308E
:100D1000F105B0F5EA5AFF4F0C94D40D20918000F4
:100D20002F7707C0209180002F7D03C02091800085
:100D3000277F2093800024C024B52F7702C024B5DC
:100D40002F7D24BD1DC0209190002F7707C02091DA
:100D500090002F7D03C020919000277F209390006A
:100D60000FC02091C0002F7703C02091C0002F7DBD
:100D70002093C00005C02091C200277F2093C200AD
:100D8000E82FF0E0EE0FFF1FE759FE4FA591B49159
:100D90008FB7F894EC9190959E239C938FBF61E060
:100DA00089E00E943106F894219708F424C0F801E4
:100DB0000190008007D0029005D001900190019031
:100DC00001D017C008D007D006D005D004D003D07A
:100DD00002D001D008952D9A001C0000000008F0F8
:100DE0002D980000000000000000000008F42D987D
:100DF00008958F01D9CF78948BE391E00197F1F7B3
:100E0000DF91CF911F910F9108958F929F92AF9292
:100E1000BF92CF92DF92EF92FF926B017C010E9412
:100E2000BB024B015C01C114D104E104F104F1F0F7
:100E30000E94BB02DC01CB0188199909AA09BB09F0
:100E4000883E9340A105B10570F321E0C21AD10894
:100E5000E108F10888EE880E83E0981EA11CB11C01
:100E6000C114D104E104F10419F7DDCFFF90EF9034
:100E7000DF90CF90BF90AF909F908F9008958F920A
:100E80009F92AF92BF92CF92DF92EF92FF920F9319
:100E90001F93CF93DF9300D01F92CDB7DEB7382FCB
:100EA0008B018091AD01811103C08FEF9FEF7DC059
:100EB0008091AA0180FF05C08091E000826080934C
:100EC000E0004A018AEFF82E832F8770E82E9FE317
:100ED000C92E832F8072B82E2AE3D22E832F8074DE
:100EE000A82E8114910409F457C08FB7F894E092AA
:100EF000E9009091E80095FF05C09091F2002C2D3B
:100F0000291B01C020E08FBF211110C0FA94FF20DF
:100F100061F261E070E080E090E039834A835B83B6
:100F20000E94050739814A815B81DBCF822F90E0E7
:100F3000881699060CF4282D6FB7F894E092E90012
:100F40008091E80085FF26C0822F90E0881A990AD8
:100F5000BB2029F02150A8F01092F100FBCFF8013E
:100F600037FF07C0215058F074917093F10031960B
:100F7000F9CF215020F071917093F100FACF080F52
:100F8000191F8091E80085FF0DC08114910411F4B0
:100F9000A11008C06FBFA5CF5D9884E68093A8011B
:100FA000CA0103C0D092E800F5CF0F900F900F90C8
:100FB000DF91CF911F910F91FF90EF90DF90CF9035
:100FC000BF90AF909F908F900895CF93DF93EC01E7
:100FD00080911401882331F083E00E943F071816A6
:100FE000190634F081E090E09B838A8380E090E0F2
:100FF000DF91CF9108952FB7F89460918F01709190
:10100000900180919101909192012FBF08951F92BC
:101010000F920FB60F9211242F933F938F939F93AC
:10102000AF93BF9380918F0190919001A091910116
:10103000B091920130918E0123E0230F2D3720F4DF
:101040000196A11DB11D05C026E8230F0296A11D22
:10105000B11D20938E0180938F0190939001A093F6
:101060009101B09392018091930190919401A0918C
:101070009501B09196010196A11DB11D8093930138
:1010800090939401A0939501B0939601BF91AF9175
:101090009F918F913F912F910F900FBE0F901F90B6
:1010A00018958091860181116BC081E08093790150
:1010B00080937A012FE731E030937C0120937B010C
:1010C00010927E0110927D0125E231E0309376018D
:1010D000209375011092810110928001109283017A
:1010E00010928201809384018093850181EC80932A
:1010F0007F010E943A02FC0121818091790190E0F8
:10110000820F911D089724F081E08093860138C0FA
:10111000A281B381109729F485E791E093838283BC
:101120000EC018968D919C911997009711F0DC01D3
:10113000F8CF85E791E019969C938E93189780815C
:1011400080937701818180937801908180917A01E9
:10115000890F808380E0909179018917A8F6A0918A
:101160007B01B0917C01A80FB11D9C91A181B0E0E1
:10117000AE5FBE4F9C9391819F5F91838F5FEBCF5A
:1011800085E791E00895CF93DF93DC01683810F094
:10119000685825C0E62FF0E067FF12C0E058F1095B
:1011A00081E090E001C0880FEA95EAF780951496F7
:1011B0009C911497892314968C93149760E00FC028
:1011C000E751FF4F6491662311F167FF08C0149641
:1011D0008C9114978D7F14968C9314976F77FD01E3
:1011E000369686E0662321F09081961301C0108226
:1011F000815031968111F6CFED010E945108BE0158
:101200006C5F7F4F0E94A20981E090E002C080E005
:1012100090E0DF91CF910895CF93DF93DC016838A0
:1012200010F068582DC0E62FF0E067FF11C0E058BD
:10123000F10981E090E001C0880FEA95EAF7149681
:101240009C911497892B14968C93149760E018C086
:10125000E751FF4F6491611109C081E090E013965E
:101260009C938E93129780E090E043C067FF08C084
:1012700014968C911497826014968C9314976F77C0
:1012800016968C911697861751F117968C91179791
:10129000861729F118968C911897861701F11996DF
:1012A0008C9119978617D9F01A968C911A978617F0
:1012B000B1F01B968C911B97861789F0FD0136962D
:1012C00080E090E02191211105C0FD01E80FF91F98
:1012D000668305C0019686309105A1F7BECFED016A
:1012E0000E945108BE016C5F7F4F0E94A20981E0FD
:1012F00090E0DF91CF910895EF92FF921F93CF93EB
:10130000DF93EC01162F0E940C097C01612FCE01A6
:101310000E94C308C7019927DF91CF911F91FF90C9
:10132000EF900895E2E7F1E080836183428341E03A
:1013300050E0BF0180E091E00C94700600000000D6
:101340000E94D50ECF92DF92EF92FF920F931F93E0
:10135000CF93DF931F92CDB7DEB77C016B0182E0A4
:10136000898341E050E0BE016F5F7F4FF7018381C9
:101370000E943F078C0197FD0CC0F701838148E074
:1013800050E0B60180640E943F0797FD02C0800FC5
:10139000911F0F90DF91CF911F910F91FF90EF90D0
:1013A000DF90CF900895FC018091AD01811103C0C1
:1013B0008FEF9FEF08959FB7F89482E08093E90044
:1013C0002091F20030E01216130614F421E030E010
:1013D0002115310559F0289884E68093AC0180915D
:1013E000F10080838091F200882319F09FBFC9012A
:1013F00008958BE68093E800F9CF1F920F920FB605
:101400000F9211248F939F938091E1009091E100BE
:10141000937F9093E10083FF0FC01092E90091E069
:101420009093EB001092EC0092E39093ED001092F9
:10143000AD0198E09093F00082FF20C093E090937C
:10144000E9009091F200992319F09AE39093E80053
:101450009091A801992339F09091A801915090930F
:10146000A801992389F19091AC01992339F09091C9
:10147000AC0191509093AC01992341F184FF10C0CD
:101480008091E2008E7E81608093E2008091E10095
:101490008F7E8093E1008091AA018E7E806111C0D1
:1014A00080FF16C08091E2008E7E80618093E20012
:1014B0008091E1008E7E8093E1008091AA018E7E72
:1014C00081608093AA0104C05D9ACDCF289AD6CFBF
:1014D0009F918F910F900FBE0F901F9018951092B3
:1014E000A7021092A60288EE93E0A0E0B0E08093FD
:1014F000A8029093A902A093AA02B093AB0289E537
:1015000091E09093A5028093A4028FEF9FEF9093B8
:10151000B1028093B002109205031092040389E691
:1015200091E090930303809302038091FA0281116A
:1015300013C01092F5021092F40286E592E09093A7
:10154000F7028093F6028FE290E09093F902809385
:10155000F80281E08093FA020E945108FC01A38501
:10156000B485109729F484EF92E0948783870BC0A9
:101570008D919C911197009711F0DC01F9CF84EFC8
:1015800092E08D939C93258536858091F802909109
:10159000F902820F931F968785870895789484B502
:1015A000826084BD84B5816084BD85B5826085BD5F
:1015B00085B5816085BD80916E00816080936E00ED
:1015C00010928100809181008260809381008091DF
:1015D0008100816080938100809180008160809390
:1015E00080008091910082608093910080919100B1
:1015F0008160809391008091900081608093900041
:101600008091C10084608093C1008091C10082609C
:101610008093C1008091C10081608093C10080915E
:10162000C30081608093C3008091C000826080937A
:10163000C0008091C20081608093C20080917A00D6
:10164000846080937A0080917A00826080937A002F
:1016500080917A00816080937A0080917A0080681E
:1016600080937A001092AD011092AB011092AA0102
:101670008091D70081608093D70080EA8093D80062
:1016800089B5806189BD89B5826089BD09B400FED4
:10169000FDCF61E070E080E090E00E94050780915E
:1016A000D8008F7C80618093D8008091E000807F9B
:1016B0008093E0008091E1008E7E8093E1008DE0D8
:1016C0008093E200559A209AEEEFFFE7859194917E
:1016D0008B3F9C4D19F481E08093A90180916500B6
:1016E00089648093650084B1817284B985B18E6DFF
:1016F00085B987B18F7387B988B1806C88B98AB191
:1017000080728AB98BB18F6D8BB96E98769A80B3DF
:101710008C7080BB81B3836F81BB60E082E10E94EB
:10172000310660E083E10E943106EBECF1E01192BA
:10173000119282E0E339F807D1F761E089E00E9475
:10174000310646E050E066E070E086E090E00E94FE
:1017500092098FEF9FEF9093B1028093B002C1E0A6
:1017600054E6C52ED12CE12CF12C6BE0862E992469
:101770009394A12CB12CD1E083B136B129B19CB1A5
:101780004FB1422F46954C2741704093AE011092C5
:10179000AF01422F41704C2750E05093B10140936C
:1017A000B001422F42954F704C2741704093B201D7
:1017B0001092B30132953695369533703C273170CF
:1017C0003093B4011092B501022E000C330B20951A
:1017D0003095232F221F2227221F2093B60110921B
:1017E000B70192959695969593709C2791709093DA
:1017F000B8011092B901982F92959695969593708D
:101800009C2791709093BA011092BB0186958695A2
:101810008C2781708093BC011092BD010EEA11E00B
:101820004DE2642E41E0742EF801819191918F0177
:10183000F3016081892B29F082E093E00E940C097A
:1018400004C082E093E00E94C308F2E06F0E711CB6
:101850002DE3621621E0720639F7E0911501E231BD
:1018600008F0E251F0E0E65BFD4FE49120917B004F
:10187000E3FB222420F8312CC10135E0880F991FA9
:101880003A95E1F7922F9F7D892B80937B00E7703B
:10189000E064E0937C0080917A00806480937A0019
:1018A00080917A0086FDFCCF0091780080917900CC
:1018B00010E0182B62E070E080E090E00E940507E5
:1018C00080911501909116018231910509F04FC068
:1018D000A0919302B0919402FD01EE0FFF1FE5531A
:1018E000FE4F208131814091950250919602609186
:1018F000970270919802421B530B61097109118381
:101900000083CB01BA01600F711F811D911D60938F
:1019100095027093960280939702909398029D018E
:101920002F5F3F4F243631052CF4309394022093DF
:10193000930206C01092940210929302D093CA01AF
:101940002091CA01211109C0209193023091940283
:10195000032E000C440B550B02C0A70196010E94F8
:10196000DA0E3093C9012093C80183E10AC043977E
:1019700039F481E0053F11400CF480E080939D0232
:1019800082E190E090931601809315010E94FB077D
:101990000091C4011091C5012091C6013091C70189
:1019A000DC01CB01801B910BA20BB30B883E934053
:1019B000A105B105D0F12091C8013091C901309342
:1019C000C3012093C2012901330F66087708C301C0
:1019D000B2010E94DC0D29E038E543E95BE30E9497
:1019E000170E6093BE017093BF018093C001909366
:1019F000C101A30192012B59324041095109A4E6CA
:101A0000B0E00E94F90EA50194010E94DA0E309315
:101A10009F0220939E020E94FB076093C401709373
:101A2000C5018093C6019093C7010E94FB070091F6
:101A3000990210919A0220919B0230919C02DC0144
:101A4000CB01801B910BA20BB30B883E9340A105E9
:101A5000B10508F444C080919E0290919F029C01C0
:101A60002C5431092232310528F440E050E06CE07A
:101A700070E027C0833391053CF040E050E06CE01B
:101A800070E086E090E01FC08A3191052CF040E0C4
:101A900050E06CE070E00EC08B3091052CF040E01F
:101AA00050E066E070E006C097FD07C040E050E0FF
:101AB00060E070E08CE090E006C04CE050E060E058
:101AC00070E080E090E00E9492090E94FB07609322
:101AD000990270939A0280939B0290939C020E94B9
:101AE000FB070091A0021091A1022091A202309167
:101AF000A302DC01CB01801B910BA20BB30B883E30
:101B00009340A105B10508F447C0E091A402F0910B
:101B1000A5020280F381E02D44E050E06DE671E023
:101B200084EA92E0099562E684EA92E00E948002EB
:101B300066E084EA92E00E94800260919E0284EA5C
:101B400092E00E94800260919D0284EA92E00E94ED
:101B5000800260E084EA92E00E94800260E084EA11
:101B600092E00E94800260E084EA92E00E9480029B
:101B700060E084EA92E00E9480026AE084EA92E0F7
:101B80000E9480020E94FB076093A0027093A10252
:101B90008093A2029093A30280E090E0892B09F445
:101BA000EBCD0E940000E8CDEE0FFF1F0590F491F1
:101BB000E02D0994E89409C097FB3EF49095809538
:101BC000709561957F4F8F4F9F4F9923A9F0F92F03
:101BD00096E9BB279395F695879577956795B79581
:101BE000F111F8CFFAF4BB0F11F460FF1BC06F5F67
:101BF0007F4F8F4F9F4F16C0882311F096E911C079
:101C0000772321F09EE8872F762F05C0662371F099
:101C100096E8862F70E060E02AF09A95660F771FAD
:101C2000881FDAF7880F9695879597F908950E948F
:101C30002A0E0C949B0E0E948D0E38F00E94940E7A
:101C400020F0952311F00C94840E0C948A0E11242C
:101C50000C94CF0E0E94AC0E70F3959FC1F3950FBC
:101C600050E0551F629FF001729FBB27F00DB11D20
:101C7000639FAA27F00DB11DAA1F649F6627B00DB0
:101C8000A11D661F829F2227B00DA11D621F739F99
:101C9000B00DA11D621F839FA00D611D221F749FA7
:101CA0003327A00D611D231F849F600D211D822FEE
:101CB000762F6A2F11249F5750409AF0F1F0882315
:101CC0004AF0EE0FFF1FBB1F661F771F881F915042
:101CD0005040A9F79E3F510580F00C94840E0C945F
:101CE000CF0E5F3FE4F3983ED4F3869577956795E2
:101CF000B795F795E7959F5FC1F7FE2B880F911D6C
:101D00009695879597F9089597F99F6780E870E011
:101D100060E008959FEF80EC089500240A94161661
:101D2000170618060906089500240A9412161306C9
:101D3000140605060895092E0394000C11F4882357
:101D400052F0BB0F40F4BF2B11F460FF04C06F5F73
:101D50007F4F8F4F9F4F089557FD9058440F551F49
:101D600059F05F3F71F04795880F97FB991F61F01D
:101D70009F3F79F087950895121613061406551F94
:101D8000F2CF4695F1DF08C0161617061806991F00
:101D9000F1CF86957105610508940895E894BB27F5
:101DA00066277727CB0197F9089581E090E0F894B2
:101DB0000C94350F052E97FB1EF400940E94F10E33
:101DC00057FD07D00E94040F07FC03D04EF40C947B
:101DD000F10E50954095309521953F4F4F4F5F4FF5
:101DE000089590958095709561957F4F8F4F9F4F87
:101DF00008950E94260FA59F900DB49F900DA49F5B
:101E0000800D911D11240895A1E21A2EAA1BBB1B5F
:101E1000FD010DC0AA1FBB1FEE1FFF1FA217B307B6
:101E2000E407F50720F0A21BB30BE40BF50B661FCC
:101E3000771F881F991F1A9469F760957095809590
:101E400090959B01AC01BD01CF010895A29FB00107
:101E5000B39FC001A39F700D811D1124911DB29FDE
:0E1E6000700D811D1124911D0895F894FFCF7F
:101E6E001F0100C18081000000FFFFFFFF00E100A5
:101E7E0000000000001200010000000000000070D1
:101E8E000600000000E002630323030703760077D9
:101E9E00007800790020000A00D700D900D800DAB7
:101EAE00007A00B0001100CC007000B10061006239
:101EBE00006C007200000000008002E507A102B273
:101ECE0003D0039602000000007C090F0221504B44
:021EDE005400AE
:00000001FF
